{
  "contractName": "AssetCrowdsale",
  "abi": [
    {
      "constant": true,
      "inputs": [],
      "name": "hasClosed",
      "outputs": [
        {
          "name": "",
          "type": "bool"
        }
      ],
      "payable": false,
      "stateMutability": "view",
      "type": "function"
    },
    {
      "constant": true,
      "inputs": [],
      "name": "rate",
      "outputs": [
        {
          "name": "",
          "type": "uint256"
        }
      ],
      "payable": false,
      "stateMutability": "view",
      "type": "function"
    },
    {
      "constant": true,
      "inputs": [],
      "name": "cap",
      "outputs": [
        {
          "name": "",
          "type": "uint256"
        }
      ],
      "payable": false,
      "stateMutability": "view",
      "type": "function"
    },
    {
      "constant": true,
      "inputs": [],
      "name": "goal",
      "outputs": [
        {
          "name": "",
          "type": "uint256"
        }
      ],
      "payable": false,
      "stateMutability": "view",
      "type": "function"
    },
    {
      "constant": true,
      "inputs": [],
      "name": "weiRaised",
      "outputs": [
        {
          "name": "",
          "type": "uint256"
        }
      ],
      "payable": false,
      "stateMutability": "view",
      "type": "function"
    },
    {
      "constant": true,
      "inputs": [],
      "name": "isOpen",
      "outputs": [
        {
          "name": "",
          "type": "bool"
        }
      ],
      "payable": false,
      "stateMutability": "view",
      "type": "function"
    },
    {
      "constant": false,
      "inputs": [
        {
          "name": "beneficiary",
          "type": "address"
        }
      ],
      "name": "withdrawTokens",
      "outputs": [],
      "payable": false,
      "stateMutability": "nonpayable",
      "type": "function"
    },
    {
      "constant": true,
      "inputs": [],
      "name": "closingTime",
      "outputs": [
        {
          "name": "",
          "type": "uint256"
        }
      ],
      "payable": false,
      "stateMutability": "view",
      "type": "function"
    },
    {
      "constant": false,
      "inputs": [],
      "name": "finalize",
      "outputs": [],
      "payable": false,
      "stateMutability": "nonpayable",
      "type": "function"
    },
    {
      "constant": true,
      "inputs": [],
      "name": "capReached",
      "outputs": [
        {
          "name": "",
          "type": "bool"
        }
      ],
      "payable": false,
      "stateMutability": "view",
      "type": "function"
    },
    {
      "constant": true,
      "inputs": [],
      "name": "wallet",
      "outputs": [
        {
          "name": "",
          "type": "address"
        }
      ],
      "payable": false,
      "stateMutability": "view",
      "type": "function"
    },
    {
      "constant": true,
      "inputs": [
        {
          "name": "account",
          "type": "address"
        }
      ],
      "name": "balanceOf",
      "outputs": [
        {
          "name": "",
          "type": "uint256"
        }
      ],
      "payable": false,
      "stateMutability": "view",
      "type": "function"
    },
    {
      "constant": true,
      "inputs": [],
      "name": "goalReached",
      "outputs": [
        {
          "name": "",
          "type": "bool"
        }
      ],
      "payable": false,
      "stateMutability": "view",
      "type": "function"
    },
    {
      "constant": true,
      "inputs": [],
      "name": "finalized",
      "outputs": [
        {
          "name": "",
          "type": "bool"
        }
      ],
      "payable": false,
      "stateMutability": "view",
      "type": "function"
    },
    {
      "constant": true,
      "inputs": [],
      "name": "openingTime",
      "outputs": [
        {
          "name": "",
          "type": "uint256"
        }
      ],
      "payable": false,
      "stateMutability": "view",
      "type": "function"
    },
    {
      "constant": false,
      "inputs": [
        {
          "name": "beneficiary",
          "type": "address"
        }
      ],
      "name": "claimRefund",
      "outputs": [],
      "payable": false,
      "stateMutability": "nonpayable",
      "type": "function"
    },
    {
      "constant": false,
      "inputs": [
        {
          "name": "beneficiary",
          "type": "address"
        }
      ],
      "name": "buyTokens",
      "outputs": [],
      "payable": true,
      "stateMutability": "payable",
      "type": "function"
    },
    {
      "constant": true,
      "inputs": [],
      "name": "token",
      "outputs": [
        {
          "name": "",
          "type": "address"
        }
      ],
      "payable": false,
      "stateMutability": "view",
      "type": "function"
    },
    {
      "inputs": [
        {
          "name": "openingTime",
          "type": "uint256"
        },
        {
          "name": "closingTime",
          "type": "uint256"
        },
        {
          "name": "rate",
          "type": "uint256"
        },
        {
          "name": "wallet",
          "type": "address"
        },
        {
          "name": "cap",
          "type": "uint256"
        },
        {
          "name": "token",
          "type": "address"
        },
        {
          "name": "goal",
          "type": "uint256"
        }
      ],
      "payable": false,
      "stateMutability": "nonpayable",
      "type": "constructor"
    },
    {
      "payable": true,
      "stateMutability": "payable",
      "type": "fallback"
    },
    {
      "anonymous": false,
      "inputs": [],
      "name": "CrowdsaleFinalized",
      "type": "event"
    },
    {
      "anonymous": false,
      "inputs": [
        {
          "indexed": true,
          "name": "purchaser",
          "type": "address"
        },
        {
          "indexed": true,
          "name": "beneficiary",
          "type": "address"
        },
        {
          "indexed": false,
          "name": "value",
          "type": "uint256"
        },
        {
          "indexed": false,
          "name": "amount",
          "type": "uint256"
        }
      ],
      "name": "TokensPurchased",
      "type": "event"
    }
  ],
  "bytecode": "0x60806040523480156200001157600080fd5b5060405160e08062001f8b833981018060405281019080805190602001909291908051906020019092919080519060200190929190805190602001909291908051906020019092919080519060200190929190805190602001909291905050508281888888888760016000819055506000831115156200009057600080fd5b600073ffffffffffffffffffffffffffffffffffffffff168273ffffffffffffffffffffffffffffffffffffffff1614151515620000cd57600080fd5b600073ffffffffffffffffffffffffffffffffffffffff168173ffffffffffffffffffffffffffffffffffffffff16141515156200010a57600080fd5b8260038190555081600260006101000a81548173ffffffffffffffffffffffffffffffffffffffff021916908373ffffffffffffffffffffffffffffffffffffffff16021790555080600160006101000a81548173ffffffffffffffffffffffffffffffffffffffff021916908373ffffffffffffffffffffffffffffffffffffffff160217905550505050428210151515620001a657600080fd5b8181111515620001b557600080fd5b816005819055508060068190555050506000600760006101000a81548160ff021916908315150217905550600081111515620001f057600080fd5b62000209620002e4640100000000026401000000009004565b620002136200030e565b808273ffffffffffffffffffffffffffffffffffffffff1673ffffffffffffffffffffffffffffffffffffffff168152602001915050604051809103906000f08015801562000266573d6000803e3d6000fd5b50600960006101000a81548173ffffffffffffffffffffffffffffffffffffffff021916908373ffffffffffffffffffffffffffffffffffffffff1602179055508060088190555050600081111515620002bf57600080fd5b80600b8190555050828111151515620002d757600080fd5b505050505050506200031f565b6000600260009054906101000a900473ffffffffffffffffffffffffffffffffffffffff16905090565b604051610d20806200126b83390190565b610f3c806200032f6000396000f3006080604052600436106100fc576000357c0100000000000000000000000000000000000000000000000000000000900463ffffffff1680631515bc2b146101075780632c4e722e14610136578063355274ea14610161578063401938831461018c5780634042b66f146101b757806347535d7b146101e257806349df728c146102115780634b6753bc146102545780634bb278f31461027f5780634f93594514610296578063521eb273146102c557806370a082311461031c5780637d3d652214610373578063b3f05b97146103a2578063b7a8807c146103d1578063bffa55d5146103fc578063ec8ac4d81461043f578063fc0c546a14610475575b610105336104cc565b005b34801561011357600080fd5b5061011c6105c2565b604051808215151515815260200191505060405180910390f35b34801561014257600080fd5b5061014b6105ce565b6040518082815260200191505060405180910390f35b34801561016d57600080fd5b506101766105d8565b6040518082815260200191505060405180910390f35b34801561019857600080fd5b506101a16105e2565b6040518082815260200191505060405180910390f35b3480156101c357600080fd5b506101cc6105ec565b6040518082815260200191505060405180910390f35b3480156101ee57600080fd5b506101f76105f6565b604051808215151515815260200191505060405180910390f35b34801561021d57600080fd5b50610252600480360381019080803573ffffffffffffffffffffffffffffffffffffffff169060200190929190505050610611565b005b34801561026057600080fd5b506102696106ca565b6040518082815260200191505060405180910390f35b34801561028b57600080fd5b506102946106d4565b005b3480156102a257600080fd5b506102ab610754565b604051808215151515815260200191505060405180910390f35b3480156102d157600080fd5b506102da610768565b604051808273ffffffffffffffffffffffffffffffffffffffff1673ffffffffffffffffffffffffffffffffffffffff16815260200191505060405180910390f35b34801561032857600080fd5b5061035d600480360381019080803573ffffffffffffffffffffffffffffffffffffffff169060200190929190505050610792565b6040518082815260200191505060405180910390f35b34801561037f57600080fd5b506103886107db565b604051808215151515815260200191505060405180910390f35b3480156103ae57600080fd5b506103b76107ef565b604051808215151515815260200191505060405180910390f35b3480156103dd57600080fd5b506103e6610806565b6040518082815260200191505060405180910390f35b34801561040857600080fd5b5061043d600480360381019080803573ffffffffffffffffffffffffffffffffffffffff169060200190929190505050610810565b005b610473600480360381019080803573ffffffffffffffffffffffffffffffffffffffff1690602001909291905050506104cc565b005b34801561048157600080fd5b5061048a61090f565b604051808273ffffffffffffffffffffffffffffffffffffffff1673ffffffffffffffffffffffffffffffffffffffff16815260200191505060405180910390f35b60008060006001600080828254019250508190555060005490503492506104f38484610939565b6104fc83610971565b91506105138360045461098f90919063ffffffff16565b60048190555061052384836109b0565b8373ffffffffffffffffffffffffffffffffffffffff163373ffffffffffffffffffffffffffffffffffffffff167f6faf93231a456e552dbc9961f58d9713ee4f2e69d15f1975b050ef0911053a7b8585604051808381526020018281526020019250505060405180910390a361059a8484610a49565b6105a2610a4d565b6105ac8484610b25565b600054811415156105bc57600080fd5b50505050565b60006006544211905090565b6000600354905090565b6000600b54905090565b6000600854905090565b6000600454905090565b6000600554421015801561060c57506006544211155b905090565b600061061b6105c2565b151561062657600080fd5b600a60008373ffffffffffffffffffffffffffffffffffffffff1673ffffffffffffffffffffffffffffffffffffffff16815260200190815260200160002054905060008111151561067757600080fd5b6000600a60008473ffffffffffffffffffffffffffffffffffffffff1673ffffffffffffffffffffffffffffffffffffffff168152602001908152602001600020819055506106c68282610b29565b5050565b6000600654905090565b600760009054906101000a900460ff161515156106f057600080fd5b6106f86105c2565b151561070357600080fd5b6001600760006101000a81548160ff021916908315150217905550610726610b7a565b7f9270cc390c096600a1c17c44345a1ba689fafd99d97487b10cfccf86cf73183660405160405180910390a1565b6000600b546107616105ec565b1015905090565b6000600260009054906101000a900473ffffffffffffffffffffffffffffffffffffffff16905090565b6000600a60008373ffffffffffffffffffffffffffffffffffffffff1673ffffffffffffffffffffffffffffffffffffffff168152602001908152602001600020549050919050565b60006008546107e86105ec565b1015905090565b6000600760009054906101000a900460ff16905090565b6000600554905090565b6108186107ef565b151561082357600080fd5b61082b6107db565b15151561083757600080fd5b600960009054906101000a900473ffffffffffffffffffffffffffffffffffffffff1673ffffffffffffffffffffffffffffffffffffffff166351cff8d9826040518263ffffffff167c0100000000000000000000000000000000000000000000000000000000028152600401808273ffffffffffffffffffffffffffffffffffffffff1673ffffffffffffffffffffffffffffffffffffffff168152602001915050600060405180830381600087803b1580156108f457600080fd5b505af1158015610908573d6000803e3d6000fd5b5050505050565b6000600160009054906101000a900473ffffffffffffffffffffffffffffffffffffffff16905090565b6109438282610d71565b600b54610960826109526105ec565b61098f90919063ffffffff16565b1115151561096d57600080fd5b5050565b600061098860035483610d9290919063ffffffff16565b9050919050565b60008082840190508381101515156109a657600080fd5b8091505092915050565b610a0281600a60008573ffffffffffffffffffffffffffffffffffffffff1673ffffffffffffffffffffffffffffffffffffffff1681526020019081526020016000205461098f90919063ffffffff16565b600a60008473ffffffffffffffffffffffffffffffffffffffff1673ffffffffffffffffffffffffffffffffffffffff168152602001908152602001600020819055505050565b5050565b600960009054906101000a900473ffffffffffffffffffffffffffffffffffffffff1673ffffffffffffffffffffffffffffffffffffffff1663f340fa0134336040518363ffffffff167c0100000000000000000000000000000000000000000000000000000000028152600401808273ffffffffffffffffffffffffffffffffffffffff1673ffffffffffffffffffffffffffffffffffffffff1681526020019150506000604051808303818588803b158015610b0a57600080fd5b505af1158015610b1e573d6000803e3d6000fd5b5050505050565b5050565b610b768282600160009054906101000a900473ffffffffffffffffffffffffffffffffffffffff1673ffffffffffffffffffffffffffffffffffffffff16610dd09092919063ffffffff16565b5050565b610b826107db565b15610cc857600960009054906101000a900473ffffffffffffffffffffffffffffffffffffffff1673ffffffffffffffffffffffffffffffffffffffff166343d726d66040518163ffffffff167c0100000000000000000000000000000000000000000000000000000000028152600401600060405180830381600087803b158015610c0d57600080fd5b505af1158015610c21573d6000803e3d6000fd5b50505050600960009054906101000a900473ffffffffffffffffffffffffffffffffffffffff1673ffffffffffffffffffffffffffffffffffffffff16639af6549a6040518163ffffffff167c0100000000000000000000000000000000000000000000000000000000028152600401600060405180830381600087803b158015610cab57600080fd5b505af1158015610cbf573d6000803e3d6000fd5b50505050610d67565b600960009054906101000a900473ffffffffffffffffffffffffffffffffffffffff1673ffffffffffffffffffffffffffffffffffffffff16638c52dc416040518163ffffffff167c0100000000000000000000000000000000000000000000000000000000028152600401600060405180830381600087803b158015610d4e57600080fd5b505af1158015610d62573d6000803e3d6000fd5b505050505b610d6f610ebe565b565b610d796105f6565b1515610d8457600080fd5b610d8e8282610ec0565b5050565b6000806000841415610da75760009150610dc9565b8284029050828482811515610db857fe5b04141515610dc557600080fd5b8091505b5092915050565b8273ffffffffffffffffffffffffffffffffffffffff1663a9059cbb83836040518363ffffffff167c0100000000000000000000000000000000000000000000000000000000028152600401808373ffffffffffffffffffffffffffffffffffffffff1673ffffffffffffffffffffffffffffffffffffffff16815260200182815260200192505050602060405180830381600087803b158015610e7357600080fd5b505af1158015610e87573d6000803e3d6000fd5b505050506040513d6020811015610e9d57600080fd5b81019080805190602001909291905050501515610eb957600080fd5b505050565b565b600073ffffffffffffffffffffffffffffffffffffffff168273ffffffffffffffffffffffffffffffffffffffff1614151515610efc57600080fd5b60008114151515610f0c57600080fd5b50505600a165627a7a723058206b82755f93f842e14b967a2e1ad72e2d52ee60742768353f5fe91de0807cf98a0029608060405234801561001057600080fd5b50604051602080610d2083398101806040528101908080519060200190929190505050336000806101000a81548173ffffffffffffffffffffffffffffffffffffffff021916908373ffffffffffffffffffffffffffffffffffffffff1602179055507f4101e71e974f68df5e9730cc223280b41654676bbb052cdcc735c3337e64d2d96000809054906101000a900473ffffffffffffffffffffffffffffffffffffffff16604051808273ffffffffffffffffffffffffffffffffffffffff1673ffffffffffffffffffffffffffffffffffffffff16815260200191505060405180910390a1600073ffffffffffffffffffffffffffffffffffffffff168173ffffffffffffffffffffffffffffffffffffffff161415151561013357600080fd5b80600260016101000a81548173ffffffffffffffffffffffffffffffffffffffff021916908373ffffffffffffffffffffffffffffffffffffffff1602179055506000600260006101000a81548160ff0219169083600281111561019357fe5b021790555050610b78806101a86000396000f3006080604052600436106100af576000357c0100000000000000000000000000000000000000000000000000000000900463ffffffff1680632348238c146100b457806338af3eed146100f757806343d726d61461014e57806351cff8d914610165578063685ca194146101a85780638c52dc41146102035780639af6549a1461021a578063c19d93fb14610231578063c6dbdf611461026a578063e3a9db1a146102c1578063f340fa0114610318575b600080fd5b3480156100c057600080fd5b506100f5600480360381019080803573ffffffffffffffffffffffffffffffffffffffff16906020019092919050505061034e565b005b34801561010357600080fd5b5061010c6104ac565b604051808273ffffffffffffffffffffffffffffffffffffffff1673ffffffffffffffffffffffffffffffffffffffff16815260200191505060405180910390f35b34801561015a57600080fd5b506101636104d6565b005b34801561017157600080fd5b506101a6600480360381019080803573ffffffffffffffffffffffffffffffffffffffff1690602001909291905050506105b6565b005b3480156101b457600080fd5b506101e9600480360381019080803573ffffffffffffffffffffffffffffffffffffffff1690602001909291905050506105d6565b604051808215151515815260200191505060405180910390f35b34801561020f57600080fd5b50610218610608565b005b34801561022657600080fd5b5061022f6106e9565b005b34801561023d57600080fd5b5061024661079e565b6040518082600281111561025657fe5b60ff16815260200191505060405180910390f35b34801561027657600080fd5b5061027f6107b5565b604051808273ffffffffffffffffffffffffffffffffffffffff1673ffffffffffffffffffffffffffffffffffffffff16815260200191505060405180910390f35b3480156102cd57600080fd5b50610302600480360381019080803573ffffffffffffffffffffffffffffffffffffffff1690602001909291905050506107de565b6040518082815260200191505060405180910390f35b61034c600480360381019080803573ffffffffffffffffffffffffffffffffffffffff169060200190929190505050610827565b005b6000809054906101000a900473ffffffffffffffffffffffffffffffffffffffff1673ffffffffffffffffffffffffffffffffffffffff163373ffffffffffffffffffffffffffffffffffffffff161415156103a957600080fd5b600073ffffffffffffffffffffffffffffffffffffffff168173ffffffffffffffffffffffffffffffffffffffff16141515156103e557600080fd5b806000806101000a81548173ffffffffffffffffffffffffffffffffffffffff021916908373ffffffffffffffffffffffffffffffffffffffff1602179055507f4101e71e974f68df5e9730cc223280b41654676bbb052cdcc735c3337e64d2d96000809054906101000a900473ffffffffffffffffffffffffffffffffffffffff16604051808273ffffffffffffffffffffffffffffffffffffffff1673ffffffffffffffffffffffffffffffffffffffff16815260200191505060405180910390a150565b6000600260019054906101000a900473ffffffffffffffffffffffffffffffffffffffff16905090565b6000809054906101000a900473ffffffffffffffffffffffffffffffffffffffff1673ffffffffffffffffffffffffffffffffffffffff163373ffffffffffffffffffffffffffffffffffffffff1614151561053157600080fd5b6000600281111561053e57fe5b600260009054906101000a900460ff16600281111561055957fe5b14151561056557600080fd5b60028060006101000a81548160ff0219169083600281111561058357fe5b02179055507f088672c3a6e342f7cd94a65ba63b79df24a8973927b4d05d803c44bbf787d12f60405160405180910390a1565b6105bf816105d6565b15156105ca57600080fd5b6105d381610867565b50565b6000600160028111156105e557fe5b600260009054906101000a900460ff16600281111561060057fe5b149050919050565b6000809054906101000a900473ffffffffffffffffffffffffffffffffffffffff1673ffffffffffffffffffffffffffffffffffffffff163373ffffffffffffffffffffffffffffffffffffffff1614151561066357600080fd5b6000600281111561067057fe5b600260009054906101000a900460ff16600281111561068b57fe5b14151561069757600080fd5b6001600260006101000a81548160ff021916908360028111156106b657fe5b02179055507f599d8e5a83cffb867d051598c4d70e805d59802d8081c1c7d6dffc5b6aca2b8960405160405180910390a1565b6002808111156106f557fe5b600260009054906101000a900460ff16600281111561071057fe5b14151561071c57600080fd5b600260019054906101000a900473ffffffffffffffffffffffffffffffffffffffff1673ffffffffffffffffffffffffffffffffffffffff166108fc3073ffffffffffffffffffffffffffffffffffffffff16319081150290604051600060405180830381858888f1935050505015801561079b573d6000803e3d6000fd5b50565b6000600260009054906101000a900460ff16905090565b60008060009054906101000a900473ffffffffffffffffffffffffffffffffffffffff16905090565b6000600160008373ffffffffffffffffffffffffffffffffffffffff1673ffffffffffffffffffffffffffffffffffffffff168152602001908152602001600020549050919050565b6000600281111561083457fe5b600260009054906101000a900460ff16600281111561084f57fe5b14151561085b57600080fd5b610864816109e4565b50565b60008060009054906101000a900473ffffffffffffffffffffffffffffffffffffffff1673ffffffffffffffffffffffffffffffffffffffff163373ffffffffffffffffffffffffffffffffffffffff161415156108c457600080fd5b600160008373ffffffffffffffffffffffffffffffffffffffff1673ffffffffffffffffffffffffffffffffffffffff1681526020019081526020016000205490506000600160008473ffffffffffffffffffffffffffffffffffffffff1673ffffffffffffffffffffffffffffffffffffffff168152602001908152602001600020819055508173ffffffffffffffffffffffffffffffffffffffff166108fc829081150290604051600060405180830381858888f19350505050158015610991573d6000803e3d6000fd5b508173ffffffffffffffffffffffffffffffffffffffff167f7084f5476618d8e60b11ef0d7d3f06914655adb8793e28ff7f018d4c76d505d5826040518082815260200191505060405180910390a25050565b60008060009054906101000a900473ffffffffffffffffffffffffffffffffffffffff1673ffffffffffffffffffffffffffffffffffffffff163373ffffffffffffffffffffffffffffffffffffffff16141515610a4157600080fd5b349050610a9681600160008573ffffffffffffffffffffffffffffffffffffffff1673ffffffffffffffffffffffffffffffffffffffff16815260200190815260200160002054610b2b90919063ffffffff16565b600160008473ffffffffffffffffffffffffffffffffffffffff1673ffffffffffffffffffffffffffffffffffffffff168152602001908152602001600020819055508173ffffffffffffffffffffffffffffffffffffffff167f2da466a7b24304f47e87fa2e1e5a81b9831ce54fec19055ce277ca2f39ba42c4826040518082815260200191505060405180910390a25050565b6000808284019050838110151515610b4257600080fd5b80915050929150505600a165627a7a72305820fb0e2098cf4b2bc57191a77146629c29b7cda8f1f64c799c7d7e37fb5fdb8d4d0029",
  "source": "pragma solidity 0.4.24;\n\nimport 'openzeppelin-solidity/contracts/crowdsale/Crowdsale.sol';\nimport 'openzeppelin-solidity/contracts/crowdsale/validation/CappedCrowdsale.sol';\nimport 'openzeppelin-solidity/contracts/crowdsale/distribution/RefundableCrowdsale.sol';\nimport 'openzeppelin-solidity/contracts/crowdsale/validation/TimedCrowdsale.sol';\nimport 'openzeppelin-solidity/contracts/crowdsale/distribution/PostDeliveryCrowdsale.sol';\nimport 'openzeppelin-solidity/contracts/token/ERC20/ERC20Mintable.sol';\nimport 'openzeppelin-solidity/contracts/token/ERC20/ERC20Detailed.sol';\n/*\ncontract AssetCrowdsale is Crowdsale, TimedCrowdsale, RefundableCrowdsale, PostDeliveryCrowdsale, CappedCrowdsale {\n\n    constructor(\n        uint256 rate,         // rate, in TKNbits\n        address wallet,       // wallet to send Ether\n        ERC20 token,          // the token\n        uint256 cap,            // the cap, in wei\n        uint256 goal,          // total goal, in wei\n        uint256 openingTime,  // opening time in unix epoch seconds\n        uint256 closingTime   // closing time in unix epoch seconds\n    )\n        PostDeliveryCrowdsale()\n        RefundableCrowdsale(goal) // cap and goal are the same, as we want to sell all tokens\n        TimedCrowdsale(openingTime, closingTime)\n        CappedCrowdsale(cap)\n        Crowdsale(rate, wallet, token)\n        public\n    {\n        // nice, we just created a crowdsale that's only open\n        // for a certain amount of time\n        // and stops accepting contributions once it reaches `cap`\n        // and then users can `withdrawTokens()` to get the tokens they're owed\n        // this crowdsale will, if it doesn't hit `goal`, allow everyone to get their money back\n        // by calling claimRefund(...)\n        require(goal <= cap);\n    }\n} */\n\n/**\n * @title SampleCrowdsaleToken\n * @dev Very simple ERC20 Token that can be minted.\n * It is meant to be used in a crowdsale contract.\n */\ncontract AssetCrowdsaleToken is ERC20Mintable, ERC20Detailed {\n  constructor(string name, string symbol) public ERC20Detailed(name, symbol, 18) {}\n}\n\n/**\n * @title SampleCrowdsale\n * @dev This is an example of a fully fledged crowdsale.\n * The way to add new features to a base crowdsale is by multiple inheritance.\n * In this example we are providing following extensions:\n * CappedCrowdsale - sets a max boundary for raised funds\n * RefundableCrowdsale - set a min goal to be reached and returns funds if it's not met\n * MintedCrowdsale - assumes the token can be minted by the crowdsale, which does so\n * when receiving purchases.\n *\n * After adding multiple features it's good practice to run integration tests\n * to ensure that subcontracts works together as intended.\n */\n// XXX There doesn't seem to be a way to split this line that keeps solium\n// happy. See:\n// https://github.com/duaraghav8/Solium/issues/205\n// --elopio - 2018-05-10\n// solium-disable-next-line max-len\ncontract AssetCrowdsale is TimedCrowdsale, RefundableCrowdsale, PostDeliveryCrowdsale, CappedCrowdsale {\n\n  constructor(\n    uint256 openingTime,\n    uint256 closingTime,\n    uint256 rate,\n    address wallet,\n    uint256 cap,\n    ERC20Mintable token,\n    uint256 goal\n  )\n    public\n    Crowdsale(rate, wallet, token)\n    PostDeliveryCrowdsale()\n    RefundableCrowdsale(goal) // cap and goal are the same, as we want to sell all tokens\n    TimedCrowdsale(openingTime, closingTime)\n    CappedCrowdsale(cap)\n  {\n    //As goal needs to be met for a successful crowdsale\n    //the value needs to less or equal than a cap which is limit for accepted funds\n    require(goal <= cap);\n  }\n}\n",
  "sourcePath": "/Users/tomas/Documents/Coisas/technical_challenge/contracts/AssetCrowdsale.sol",
  "compiler": {
    "name": "solc",
    "version": "0.4.24+commit.e67f0147.Emscripten.clang"
  },
  "schemaVersion": "2.0.1",
  "updatedAt": "2018-10-31T16:04:30.969Z"
}